S00E00005465747269732E737265639B
S11300000C943B000C9458000C9458000C94580029
S11300100C9458000C9458000C9458000C945800FC
S11300200C9458000C9458000C9458000C9419012A
S11300300C9458000C9458000C9458000C945800DC
S11300400C9458000C9458000C9458000C945800CC
S11300500C9458000C9458000C9458000C945800BC
S11300600C9458000C94580014092C091D093C09DF
S11300704B094E09510911241FBECFEFD8E0DEBF52
S1130080CDBF11E0A0E0B1E0E0E3F1E202C00590F1
S11300900D92A03BB107D9F726E0A0EBB1E001C077
S11300A01D92A139B207E1F70E94540D0C949610E9
S11300B00C94000008950F931F93CF93DF9300D007
S11300C0CDB7DEB74091C9015091CA014115510520
S11300D001F1082F10E0F801E054FE4F20812F5F5A
S11300E0208330E042175307A1F491E099838A8377
S11300F0CE0101960E941E02019729F4F801E054F2
S1130100FE4F108206C0F801E054FE4F80818150FA
S113011080830F900F90DF91CF911F910F910895DD
S11301201F93CF93DF9300D0CDB7DEB7182F82E0B3
S113013089831A83CE0101960E941E02019769F4F5
S113014081E090E002C0880F991F1A95E2F780952C
S11301509091C80189238093C8010F900F90DF917B
S1130160CF911F9108951F93CF93DF9300D0CDB704
S1130170DEB7182F19828A83E82FF0E0E054FE4F8F
S11301801082CE0101960E941E02019761F481E063
S113019090E002C0880F991F1A95E2F79091C80168
S11301A0892B8093C8010F900F90DF91CF911F91FD
S11301B008951AB88FEF8BB985E39CE0909389007A
S11301C08093880082E080936F008CE080938100AC
S11301D078940895F8949C0136952795ABE7B4E19B
S11301E00E94E50F9695879599279093CA0180936D
S11301F0C901E0ECF1E088EC91E01192E817F9070D
S1130200E1F778940895F894482F50E0FA01E05506
S1130210FE4F9B0136952795ABE7B4E10E94E50FAD
S1130220969587958083FA01E854FE4F108278945E
S113023008951F920F920FB60F921124AF92BF929E
S1130240CF92DF92EF92FF920F931F932F933F93DE
S11302504F935F936F937F938F939F93AF93BF93CA
S1130260EF93FF93CF93DF9300D0CDB7DEB701E0D8
S113027010E0EE24E394F12CC12CD12C8BB190919D
S1130280C8019023EE2DFF2D11F4EC2DFD2D90E0EF
S113029080959095202F30E0282339238E2D9F2D93
S11302A0232B11F48C2D9D2DEE0FFF1FE80FF91F4A
S11302B0EE0FFF1FEA5FFE4F0190F081E02D812FCA
S11302C009951F5F000F1830C9F60F2EF0EBAF2E03
S11302D0F1E0BF2EF02D08EB11E0F12C0F2EF3E02E
S11302E0EF2EF02DF50191915F019923A9F0F8010A
S11302F080818F5F808398130FC0E982FA82CE01D8
S113030001960E941E02019719F4F801108204C09C
S1130310F801808181508083F3940F5F1F4FF8E0D0
S1130320FF12E0CF0F900F90DF91CF91FF91EF91EB
S1130330BF91AF919F918F917F916F915F914F91F9
S11303403F912F911F910F91FF90EF90DF90CF90ED
S1130350BF90AF900F900FBE0F901F9018958F9283
S11303609F92AF92BF92CF92DF92EF92FF920F9340
S11303701F93CF93DF936B017C01C11481EED806E8
S113038085EFE80685E0F80650F00F2ECC24CA94D9
S1130390F0EEDF2EF5EFEF2EF5E0FF2EF02D01E06D
S11303A010E00F2EFAE08F2E912CA12CB12CF02D01
S11303B0C701B601A50194010E94BD0F69017A012C
S11303C0D02FCC27C62BD72BCE010E94970FCE015E
S11303D00E94970F0F5F1F4F0930110549F7DF91F6
S11303E0CF911F910F91FF90EF90DF90CF90BF902E
S11303F0AF909F908F9008950E94920F8FE09AE0A3
S11304000E94970F80E09FE00E94970F8FEF9BE080
S11304100E94970F8FEF99E00E94970F81E09CE074
S11304200E94970F08952091D5013091D6018091B3
S1130430D3019091D401820F931F08952091D50187
S11304403091D6012431310541F12091D10130910F
S1130450D201A9014F5F5F4F5093D2014093D10164
S1130460220F331FF901E750FA4FDC018D919C9163
S1130470918380834431510521F41092D20110926A
S1130480D1018091D5019091D60101969093D60126
S11304908093D50181E090E0089580E090E0089594
S11304A02091D3013091D4012431310541F12091BF
S11304B0CD013091CE01A9014F5F5F4F5093CE0122
S11304C04093CD01220F331FF901EF5DF94FDC0199
S11304D08D919C91918380834431510521F4109234
S11304E0CE011092CD018091D3019091D401019657
S11304F09093D4018093D30181E090E0089580E04B
S113050090E00895CF93DF93EC010E941302892BAE
S1130510E1F38091D3019091D401892B29F1809149
S1130520CB019091CC019C012F5F3F4F3093CC01C4
S11305302093CB01880F991FFC01EF5DF94F808157
S11305409181998388832431310521F41092CC015F
S11305501092CB018091D3019091D4010197909393
S1130560D4018093D30124C08091CF019091D00114
S11305709C012F5F3F4F3093D0012093CF01880F10
S1130580991FFC01E750FA4F8081918199838883F8
S11305902431310521F41092D0011092CF018091C1
S11305A0D5019091D60101979093D6018093D501FE
S11305B0DF91CF9108951092D6011092D501109237
S11305C0D4011092D3011092D0011092CF01109255
S11305D0D2011092D1011092CC011092CB01109251
S11305E0CE011092CD0108950E94A80F0895782F8E
S11305F0842F0895CF92DF92EF926901E42E883020
S113060008F03FC06032E8F560FF1AC090E0FC01DA
S1130610EE0FFF1FE80FF91F4FE150E0461B510991
S1130620CA01880F991F480F591F440F551F440FC3
S1130630551F440F551FE40FF51FE952FE4F1CC010
S1130640E7E0F0E0E81BF109CF01880F991FE80FFC
S1130650F91F8FE190E0861B91099C01220F331F43
S1130660820F931F880F991F880F991F880F991F56
S1130670E80FF91FE952FE4F309719F0C082D1827A
S1130680E282EF90DF90CF90089587ED91E00E9491
S1130690A60F80E093E00E94A50F0E94A70F089583
S11306A089ED94E0E9E4F6E021E936E08193919361
S11306B00896E217F307D1F708950F931F93CF938A
S11306C0DF9300D0CDB7DEB700E010E00F5F1F4F1F
S11306D00E941302892BD1F3CE0101960E9482025B
S11306E089818111F3CFC8010E9459100F900F9096
S11306F0DF91CF911F910F910895A9E4B6E041E9EC
S113070056E010C0ED91FC9111978260E20FF31F47
S113071080832F5F3F4F2C303105A1F71296A41729
S1130720B50719F020E030E0EDCF0895DF92EF92A5
S1130730FF920F931F93CF93DF9301E516E0D12C23
S11307402FC0D8018D919C91FC01EC0FFD1F2081DD
S113075021FF1CC0822F82958695877090E0FC0152
S1130760EE0FFF1F8E0F9F1FFC01E85AFE4F2081E2
S1130770318142816D2D8C2F0E94FA02D701ED91B7
S1130780FC91EC0FFD1F80818D7F80832196C83002
S1130790D105B9F6D3940E5F1F4FB0E2DB1621F0FA
S11307A0C0E0D0E07801CDCFDF91CF911F910F91C0
S11307B0FF90EF90DF900895A1E5B6E041E956E09F
S11307C010C0ED91FC911197E80FF91F2081226070
S11307D02083019688309105A1F712964A175B078A
S11307E019F080E090E0EDCF0E94960308958430E4
S11307F0910544F56430710538F5483038F52430F6
S113080038F5FB01EE0FFF1FEE0FFF1FE80FF91F76
S1130810EE0FFF1FE25FFE4FA22FB0E084E0489F7F
S1130820A00DB11D1124AA0FBB1FA059BE4F2081DA
S113083031818D919C912823392381E0232B49F424
S113084080E0089580E0089580E0089580E00895B0
S113085080E008952F923F924F925F926F927F9221
S11308608F929F92AF92BF92CF92DF92EF92FF92BC
S11308700F931F93CF93DF93282E392E4B01442ED1
S1130880522ECB01880F991F9C01275B394F6901B8
S1130890A12CB12C30C0252D442DB701CE010E94CE
S11308A0F7038823C1F00830110570F584E2681657
S11308B0710460F5F60140815181FA01E00FF11FE6
S11308C0808182958695877031F0FA01E00FF11FDF
S11308D0808180FF1DC021960F5F1F4FC430D1055A
S11308E0D1F6FFEFAF1ABF0A22E0C20ED11C34E0EA
S11308F0A316B10479F0022D132DC0E0D0E07501E8
S11309003501680C791CC7CF80E005C080E003C0C6
S113091080E001C081E0DF91CF911F910F91FF90A2
S1130920EF90DF90CF90BF90AF909F908F907F908B
S11309306F905F904F903F902F900895AF92BF9229
S1130940CF92DF92EF92FF920F931F93CF93DF9397
S11309506C01A42EB22E660F771FCB01875B994FD3
S11309607C0100E010E020C02B2D4A2DB801CE01FF
S11309700E94F703882361F0D701ED91FC91C60131
S11309808C0F9D1FE80FF91F80818C71826080831A
S11309902196C430D10541F70F5F1F4FB2E0EB0E33
S11309A0F11C0430110519F0C0E0D0E0DDCFDF9177
S11309B0CF911F910F91FF90EF90DF90CF90BF9058
S11309C0AF9008959F92AF92BF92CF92DF92EF9231
S11309D0FF920F931F93CF93DF936C01B42EA22E3B
S11309E0660F771FCB01875B994F7C0100E010E015
S11309F0942E990C990C990C990C990C21C02A2DC0
S1130A004B2DB801CE010E94F703882369F0D7016A
S1130A10ED91FC91C6018C0F9D1FE80FF91F808199
S1130A208C718360892980832196C430D10539F77C
S1130A300F5F1F4FB2E0EB0EF11C0430110519F0EB
S1130A40C0E0D0E0DCCFDF91CF911F910F91FF90F8
S1130A50EF90DF90CF90BF90AF909F900895CF9389
S1130A60C091D804C0FF07C070E0082E000C990B99
S1130A700E949E0406C070E0082E000C990B0E9490
S1130A80E204CF5FC093D804CF9108959F92AF92B0
S1130A90BF92CF92DF92EF92FF920F931F93CF9367
S1130AA0DF936C01B42EA22E660F771FCB01875BF8
S1130AB0994F7C0100E010E0942E990C990C990C4C
S1130AC0990C990C21C02A2D4B2DB801CE010E94FE
S1130AD0F703882369F0D701ED91FC91C6018C0FCF
S1130AE09D1FE80FF91F80818C71826089298083A2
S1130AF02196C430D10539F70F5F1F4FB2E0EB0EDA
S1130B00F11C0430110519F0C0E0D0E0DCCFDF9116
S1130B10CF911F910F91FF90EF90DF90CF90BF90F6
S1130B20AF909F900895DF92EF92FF920F931F93DF
S1130B30CF93DF93F62EE42ED22E062F660F110BE1
S1130B400F5F1F4FC82F880FDD0BB801CE010E9425
S1130B502A04882379F06F2DFF0C770B2D2D4E2D51
S1130B60CE010E949E042D2D4E2DB801CE010E946F
S1130B70E20481E0DF91CF911F910F91FF90EF90FC
S1130B80DF900895CF92DF92EF92FF920F931F931D
S1130B90CF93DF93F42EE22EC62F660FDD0B082FC2
S1130BA0880F110B680181E0C81AD108BE01C60183
S1130BB00E942A04882369F02E2D4F2DBE01C801FE
S1130BC00E949E042E2D4F2DBE01C6010E94E204F8
S1130BD081E0DF91CF911F910F91FF90EF90DF9013
S1130BE0CF900895CF92DF92EF92FF920F931F93CD
S1130BF0CF93DF93F42EE22EC62F660FDD0B082F62
S1130C00880F110B68018FEFC81AD80ABE01C601FC
S1130C100E942A04882369F02E2D4F2DBE01C8019D
S1130C200E949E042E2D4F2DBE01C6010E94E20497
S1130C3081E0DF91CF911F910F91FF90EF90DF90B2
S1130C40CF9008953F924F925F926F927F928F92CE
S1130C509F92AF92BF92CF92DF92EF92FF920F9347
S1130C601F93CF93DF936C014B015A018901F90162
S1130C70308081E0830D8370782EFA014080FB017F
S1130C80C0810C2E000CDD0BF6016080E62C062CD6
S1130C90000CFF08282F442DBE01C7010E942A041E
S1130CA0582E882301F1232D442DBE01C7010E9433
S1130CB09E04F80120812F5F2370F4016081062EC9
S1130CC0000C770BF6018081F5014081082E000CA1
S1130CD0990B0E94E204F80180818F5F8370808306
S1130CE055245394C6C0662074F5272D442DBE01A7
S1130CF0C70101960E942A04882329F1232D442D3B
S1130D00BE01C7010E949E04F80120812F5F237059
S1130D10F4016081062E000C770BF6018081082E09
S1130D20000C990BF501408101960E94E204F60142
S1130D3080818F5F8083F80180818F5F83708083DF
S1130D405524539496C0F4E0F61574F5272D442DDC
S1130D50BE01C70101970E942A04882329F1232D8B
S1130D60442DBE01C7010E949E04F80120812F5F1B
S1130D702370F4016081062E000C770BF60180814C
S1130D80082E000C990BF501408101970E94E204A2
S1130D90F601808181508083F80180818F5F8370A8
S1130DA080835524539465C0F1E04F1262C08FEFE5
S1130DB0681674F5272D41E0BE01C70102960E9412
S1130DC02A04882329F1232D41E0BE01C7010E9492
S1130DD09E04F80120812F5F2370F4016081062EA8
S1130DE0000C770BF6018081082E000C990BF5019D
S1130DF0408102960E94E204F60180818E5F808326
S1130E00F80180818F5F837080835524539431C0AF
S1130E10F5E0F61574F5272D41E0BE01C7010297F0
S1130E200E942A04582E882321F1232D41E0BE017B
S1130E30C7010E949E04F80120812F5F2370F401F2
S1130E406081062E000C770BF6018081082E000CC1
S1130E50990BF501408102970E94E204F60180811A
S1130E6082508083F80180818F5F83708083552452
S1130E705394852DDF91CF911F910F91FF90EF90A7
S1130E80DF90CF90BF90AF909F908F907F906F90A6
S1130E905F904F903F9008953F924F925F926F9270
S1130EA07F928F929F92AF92BF92CF92DF92EF92F6
S1130EB0FF920F931F93CF93DF936C014B015A0161
S1130EC08901F901308083E0830D8370782EFA0163
S1130ED04080FB01C0810C2E000CDD0BF60160800C
S1130EE0E62C062C000CFF08282F442DBE01C70158
S1130EF00E942A04582E882301F1232D442DBE017B
S1130F00C7010E949E04F80120812D5F2370F40123
S1130F106081062E000C770BF6018081F50140817B
S1130F20082E000C990B0E94E204F80180818D5F69
S1130F308370808355245394C6C0662074F5272D8E
S1130F40442DBE01C70101960E942A04882329F179
S1130F50232D442DBE01C7010E949E04F801208167
S1130F602D5F2370F4016081062E000C770BF601CF
S1130F708081082E000C990BF501408101960E9496
S1130F80E204F60180818F5F8083F80180818D5FA8
S1130F90837080835524539496C0F4E0F61574F559
S1130FA0272D442DBE01C70101970E942A048823DE
S1130FB029F1232D442DBE01C7010E949E04F8018E
S1130FC020812D5F2370F4016081062E000C770BC5
S1130FD0F6018081082E000C990BF50140810197E0
S1130FE00E94E204F601808181508083F8018081AF
S1130FF08D5F837080835524539465C0F1E04F1254
S113100062C08FEF681674F5272D41E0BE01C70159
S113101002960E942A04882329F1232D41E0BE016F
S1131020C7010E949E04F80120812D5F2370F40102
S11310306081062E000C770BF6018081082E000CCF
S1131040990BF501408102960E94E204F601808129
S11310508E5F8083F80180818D5F83708083552447
S1131060539431C0F5E0F61574F5272D41E0BE0127
S1131070C70102970E942A04582E882321F1232DA8
S113108041E0BE01C7010E949E04F80120812D5F4A
S11310902370F4016081062E000C770BF601808129
S11310A0082E000C990BF501408102970E94E2047E
S11310B0F601808182508083F80180818D5F837086
S11310C0808355245394852DDF91CF911F910F91E7
S11310D0FF90EF90DF90CF90BF90AF909F908F9054
S11310E07F906F905F904F903F900895482F843287
S11310F0C4F5282F082E000C330B682F70E06C5FAA
S11311007F4F26173707E4F080E00895FD01E20FD2
S1131110F31F908192959695977031F02F5F3F4F12
S11311202830310599F71FC04F5F550F4432E9F05D
S1131130242F042E000C330B261737071CF00895B8
S113114051E080E0220F331FF901E75BF94FA081E2
S1131150B1819C9192959695977031F321E030E09E
S1131160D5CF80E00895852BDFCF08958823B1F093
S1131170E82FF0E0DF01AA0FBB1FA75BB94F2D9149
S11311803C911197EE0FFF1FE95BF94F40815181AC
S11311904D935C9331832083815051F70895CF930D
S11311A0DF93C9E4D6E041E556E011C081E090E068
S11311B0FD01E80FF91F208122952695277081F4FF
S11311C0019688309105A1F7C417D50759F0A99164
S11311D0B9918C9182958695877041F381E003C023
S11311E081E001C080E0DF91CF9108958F929F92BA
S11311F0AF92BF92CF92DF92EF92FF920F931F9321
S1131200CF93DF93D8011196EC918E2E912CB7E0F9
S11312108B16910408F04BC0D6018B01EC01F4014C
S1131220EC5CFF4F0C94DF0F81E0F701808362E3F5
S113123070E080E00E9403013AC0D9012C91FA01C8
S11312404081DB016C9188810E94C205882379F179
S11312508881815088832BC0F9012081DA014C9167
S1131260FB01608188810E949305882301F1D801E4
S11312708C918F5F8C931BC0F9012081DA014C9112
S1131280FB01608188810E94F205882381F08881B6
S11312908F5F88830CC00E944C0709C00E942206FD
S11312A006C0FB018081833014F084E08C93DF91CD
S11312B0CF911F910F91FF90EF90DF90CF90BF904F
S11312C0AF909F908F90089520E030E0A82FB0E079
S11312D0AA0FBB1FA75BB94FED91FC911197E20FC9
S11312E0F31F90819C71926090832F5F3F4F283051
S11312F0310591F70895E82FF0E0DF01AA0FBB1F35
S1131300A75BB94F8D919C911197EE0FFF1FE95B7D
S1131310F94F208131812D933C93918380830895EB
S113132020E030E0A82FB0E0AA0FBB1FA75BB94FA5
S11313306295660F607EED91FC911197E20FF31FA9
S113134090819C719260962B90832F5F3F4F283041
S1131350310589F7089520E030E0A82FB0E0AA0F06
S1131360BB1FA75BB94FED91FC911197E20FF31FDF
S11313709081926090832F5F3F4F2830310599F719
S11313800895CF93DF93EC0180910501882369F0E0
S113139083E288830E9490096BE470E080E00E94FD
S11313A003011092050180E015C0888118167CF4B1
S11313B081500E94640988810E947B098881815040
S11313C00E94AB0988818150888380E003C081E05A
S11313D080930501DF91CF910895EF92FF920F93CF
S11313E01F93CF93DF93909104012FEF290F209344
S11313F00401992381F1880F990BAC01475B594F84
S1131400C9E4D6E001E516E081E0962F9823D1F0F7
S1131410DA012D913C911197E880F9801196FC92A4
S1131420EE923983288320E030E0ED91FC9111970E
S1131430E20FF31F9081926090832F5F3F4F28301B
S1131440310599F7880F4E5F5F4F2296C017D10779
S1131450E1F680E05CC0A9E4B6E0C82FCC0FDD0B58
S1131460C75BD94F01E516E071E0962F9723C1F0D1
S113147020E030E0ED91FC911197E20FF31F908191
S11314809C7192609083E881F981E20FF31F90814F
S11314909C71926090832F5F3F4F2830310551F744
S11314A0770F129622960A171B07F9F67A01C62FB0
S11314B0D82F04E0080F11E08C2F812341F08D2FE9
S11314C00E94B6088091D7048F5F8093D704110FD0
S11314D0DF5FD013F1CFE091D704F0E0EE0FFF1FF0
S11314E0E25DFE4F20813181F70180819181A281EB
S11314F0B381820F931FA11DB11D80839183A283A9
S1131500B3831092D70483E08093040181E0DF91D8
S1131510CF911F910F91FF90EF900895062E000C2C
S1131520770BFB01EE0FFF1FE75BF94FA081B18141
S1131530042E000C550BA40FB51F9C919C71829531
S1131540880F807E9260982B9C93A081B1819A0130
S11315502F5F3F4FA20FB31F9C919C719260982BF9
S11315609C93A081B1814E5F5F4FA40FB51F9C91E6
S11315709C719260982B9C93FB01EE0FFF1FE55B1F
S1131580F94F0190F081E02DE20FF31F90819C71DF
S11315909260982B9083FB01EE0FFF1FE35BF94FE2
S11315A00190F081E02DE20FF31F90819C71926015
S11315B0982B9083FB01EE0FFF1FE15BF94F019025
S11315C0F081E02DE20FF31F90819C719260982BC3
S11315D09083660F771FFB01EF5AF94F0190F0815A
S11315E0E02DE20FF31F90819C719260892B808320
S11315F00895CF93DF93062E000C770BFB01EE0FBB
S1131600FF1FE75BF94FA081B181042E000C550B3D
S1131610A40FB51F9C919C718295880F807E926067
S1131620982B9C93A081B181EA012196AC0FBD1F38
S11316309C919C719260982B9C930190F081E02D79
S11316409A012E5F3F4FE20FF31F90819C719260CD
S1131650982B9083FB01EE0FFF1FE55BF94F019080
S1131660F081E02DE40FF51F90819C719260982B1E
S11316709083FB01EE0FFF1FE35BF94FA081B18163
S1131680A40FB51F9C919C719260982B9C93A08190
S1131690B181AC0FBD1F9C919C719260982B9C935F
S11316A00190F081E02DE20FF31F90819C71926014
S11316B0982B9083FB01EE0FFF1FE15BF94F019024
S11316C0F081E02DE40FF51F90819C719260982BBE
S11316D09083660F771FDB01AF5AB94FED91FC91F0
S11316E01197E40FF51F90819C719260982B908361
S11316F04D915C911197C40FD51F98819C71926094
S1131700982B9883ED91FC91E20FF31F90819C71CB
S11317109260892B8083DF91CF910895EF92FF929D
S11317200F931F93CF93DF93062E000C770BDB01EF
S1131730AA0FBB1FA75BB94FED91FC911197042E23
S1131740000C550BE40FF51F90819C718295880F56
S1131750807E9260982B9083CD91DC911197FA0151
S11317603196CE0FDF1F98819C719260982B9883DD
S11317700D90BC91A02DEA012296AC0FBD1F9C9147
S11317809C719260982B9C938B01000F111F055B39
S1131790194FD8012D913C91D901AC0FBD1F9C91DB
S11317A09C719260982B9C939B01220F331F235BA7
S11317B0394FD901ED90FC90D701AC0FBD1F9C911E
S11317C09C719260982B9C93D901ED90FC90D70169
S11317D0AE0FBF1F9C919C719260982B9C93DB0170
S11317E0AA0FBB1FA15BB94FED90FC901197EE0DB2
S11317F0FF1D90819C719260982B9083660F771FD8
S1131800FB01EF5AF94F60817181C60FD71F988190
S11318109C719260982B9883E80168817981EB012F
S1131820C40FD51F98819C719260982B9883E9010D
S113183028813981E901C40FD51F98819C71926078
S1131840982B98830D90BC91A02DA40FB51F9C914B
S11318509C719260982B9C930190F081E02DE40F91
S1131860F51F90819C719260892B8083DF91CF91C9
S11318701F910F91FF90EF900895CF93DF93062E61
S1131880000C770BFB01EE0FFF1FE75BF94FA08104
S1131890B181042E000C550BA40FB51F9C919C71B3
S11318A08295880F807E9260982B9C93C081D18111
S11318B0DA011196CA0FDB1F98819C719260982BF4
S11318C098830190F081E02D9A012E5F3F4FE20F43
S11318D0F31F90819C719260982B9083FB01EE0F13
S11318E0FF1FE55BF94F0190F081E02DEA0FFB1F2C
S11318F090819C719260982B9083FB01EE0FFF1FE7
S1131900E35BF94F0190F081E02DEA0FFB1F90811A
S11319109C719260982B9083FB01EE0FFF1FE15B9B
S1131920F94F0190F081E02DEA0FFB1F90819C712B
S11319309260982B9083660F771FFB01EF5AF94F43
S1131940C081D181C40FD51F98819C719260982B5E
S1131950988340815181A40FB51F9C919C71926022
S1131960982B9C930190F081E02DE20FF31F90815E
S11319709C719260892B8083DF91CF910895CF93DE
S1131980DF93062E000C770BFB01EE0FFF1FE75BC6
S1131990F94FA081B181042E000C550BA40FB51F83
S11319A09C919C718295880F807E9260982B9C9369
S11319B0A081B181EA012196AC0FBD1F9C919C715D
S11319C09260982B9C930190F081E02D9A012E5FF8
S11319D03F4FE20FF31F90819C719260982B90838C
S11319E0FB01EE0FFF1FE55BF94F0190F081E02D45
S11319F0E40FF51F90819C719260982B9083FB01FA
S1131A00EE0FFF1FE35BF94FA081B181A40FB51F57
S1131A109C919C719260982B9C93A081B181AC0F96
S1131A20BD1F9C919C719260982B9C930190F081B6
S1131A30E02DE20FF31F90819C719260982B9083AC
S1131A40FB01EE0FFF1FE15BF94F0190F081E02DE8
S1131A50E20FF31F90819C719260982B9083660F24
S1131A60771FDB01AF5AB94FED91FC911197E40F49
S1131A70F51F90819C719260982B90834D915C919D
S1131A801197C40FD51F98819C719260982B9883ED
S1131A90ED91FC91E20FF31F90819C719260892B70
S1131AA08083DF91CF910895CF93DF93CDB7DEB7D5
S1131AB02C970FB6F894DEBF0FBECDBF19821A82E1
S1131AC01B821C821D821A860E9450030E94FC0104
S1131AD0412CE89440F8689441F8242D2F71422E4B
S1131AE00E94F4020E94D90062E370E080E00E9448
S1131AF00301842D0E947D030E9496034FEF6FEF34
S1131B008FEF0E94F7029B01482F60E080E00E9463
S1131B10FA024FEF6FEF8FEF0E94F7029B01482FFD
S1131B2060E087E00E94FA024FEF6FEF8FEF0E94B0
S1131B30F7029B01482F6FE180E00E94FA024FEF09
S1131B406FEF8FEF0E94F7029B01482F6FE187E050
S1131B500E94FA020E9445036EE471E68CEB90E069
S1131B600E94AF010E945D03842D0E947D030E94A8
S1131B7096030E94450384E690E00E94EA000E94D6
S1131B80DB020F2EF2E38F2E912CF02D312C0F2E31
S1131B90F7E06F2E712CF02DBB24B3946894AA2423
S1131BA0A1F80F2EF6E05F2EF02D0E94FC016A8151
S1131BB07B818C819D810E94AF01CE010B960E9496
S1131BC082028A85833009F474C028F4882361F082
S1131BD08130B1F1EACF853009F4EEC008F44BC18D
S1131BE0863009F482C1E1CF1A821B821C821D82D5
S1131BF060E070E0CB010E94AF014B2D65E08B2DBE
S1131C000E948E0A44E06AE08A2D0E94F90A4B2D54
S1131C106FE083E00E948E0A44E064E184E00E9465
S1131C208E0B4B2D69E185E00E943D0C44E06EE192
S1131C30852D0E94BF0C8B8581116EC1BA866CC143
S1131C400E94DB02842D0E947D030E945410837045
S1131C5090784C01992354F481E0881A91089CEF00
S1131C60892A99249A942FEF821A920A89860E94CB
S1131C705410B3010E94A90F41E0480F4887BF8266
S1131C80AE82282D61E070E082E090E00E94E204E0
S1131C900E9496030E94450383E08A8768EC70E003
S1131CA080E00E9403010F2EF8EC8F2E912CF02D72
S1131CB07CCF8B858130E1F018F0833019F175CF3A
S1131CC08981811172CFCE010A966C0109977C013A
S1131CD08E01055F1F4F9E01275F3F4FAE01485F96
S1131CE05F4FBE01695F7F4F05960E94F60814C1DD
S1131CF08C85843008F059CF1B86CE010B960E9448
S1131D00500253CF298548856F818E810E949305A7
S1131D10882321F08F818F5F8F83FEC06F81062E11
S1131D20000C770B8E8129854885082E000C990BB1
S1131D300E9446058981882341F08B258983B4015B
S1131D4080E00E9403010E94DB021F81812F0E9418
S1131D507608382E882341F068EC70E080E00E9419
S1131D60030185E08A8721CF153034F40E94CF081F
S1131D70882311F05A8619CF0E9454108C010370E5
S1131D801078112334F4015011090C6F1F6F0F5F89
S1131D901F4F09870E945410B3010E94A90F41E00C
S1131DA0480F4887BF82AE82202F61E070E082E056
S1131DB090E00E94E204B0C08B85833009F0F5CE38
S1131DC0AE014E5F5F4F632D8F810E94ED09882322
S1131DD009F4A2C00E94CF08882311F05A869CC03F
S1131DE00E9454108C0103701078112334F40150B4
S1131DF011090C6F1F6F0F5F1F4F09870E9454104A
S1131E00B3010E94A90F41E0480F4887BF82AE8208
S1131E10202F61E070E082E090E00E94E20483E021
S1131E208A876A817B818C819D8160382CE072076E
S1131E308105910570F428EC30E040E050E00E9408
S1131E40BD0F220F331FF901E85CFE4F80809180A3
S1131E5005C00F2EF2E38F2E912CF02DB40180E0FB
S1131E600E9403016A817B818C819D810E94AF0164
S1131E700E94DC0351C08B85833061F460E971E01A
S1131E8080E00E940301298548856F818E810E942C
S1131E902F0542C0811189CE8C858630A9F4B40106
S1131EA080E00E9403016F81062E000C770B8E8167
S1131EB029854885082E000C990B0E94E2040E9493
S1131EC0DC0383E08A8771CE873009F06ECE6F81A0
S1131ED0062E000C770B8E8129854885082E000C70
S1131EE0990B0E94E2045A8660CE8B85833009F0F8
S1131EF05CCE6885CE0107960E94C109882361F0F3
S1131F0062E370E080E00E9403011A8605C00E942B
S1131F1096030E94450349CE0E941302892B09F0BF
S1131F2044CEF5CF8CE284B981E58CBD089529981F
S1131F300DB407FEFDCF9EBD0DB407FEFDCF8EBDD3
S1131F400DB407FEFDCF299A0895089508950895C4
S1131F50089597FB072E16F4009407D077FD09D057
S1131F600E94F40F07FC05D03EF4909581959F4F95
S1131F700895709561957F4F0895A1E21A2EAA1BCA
S1131F80BB1BFD010DC0AA1FBB1FEE1FFF1FA21725
S1131F90B307E407F50720F0A21BB30BE40BF50B22
S1131FA0661F771F881F991F1A9469F760957095AB
S1131FB0809590959B01AC01BD01CF010895EE0F72
S1131FC0FF1F0590F491E02D0994A29FB001B39FE7
S1131FD0C001A39F700D811D1124911DB29F700D2E
S1131FE0811D1124911D0895AA1BBB1B51E107C03B
S1131FF0AA1FBB1FA617B70710F0A61BB70B881F95
S1132000991F5A95A9F780959095BC01CD01089523
S11320108F929F92AF92BF92CF92DF92EF92FF92F4
S1132020CF93DF93EC01688179818A819B8161156B
S113203071058105910521F464E279ED8BE597E062
S11320402DE133EF41E050E00E94641049015A0150
S11320509B01AC01A7EAB1E40E9483106B017C01EF
S1132060ACEEB4EFA50194010E949110DC01CB0108
S11320708C0D9D1DAE1DBF1DB7FF03C00197A109A7
S1132080B04888839983AA83BB839F77DF91CF91DC
S1132090FF90EF90DF90CF90BF90AF909F908F9084
S11320A008950E940810089580E091E00E940810AD
S11320B00895A0E0B0E08093000190930101A09303
S11320C00201B09303010895052E97FB1EF40094BA
S11320D00E947B1057FD07D00E94BD0F07FC03D060
S11320E04EF40C947B1050954095309521953F4FBC
S11320F04F4F5F4F089590958095709561957F4FF0
S11321008F4F9F4F08950E94E50FA59F900DB49F98
S1132110900DA49F800D911D11240895B7FF0C9478
S113212083100E948310821B930B0895F894FFCFB1
S11321300100000003015A00B30090005B0000801E
S1132140004000200010000800040002000180008C
S113215040002000100008000400020001000000FC
S113216028006400C8009001C800BE00B400AA00A2
S1132170A00096008C00820078006E0064005A0073
S1132180500046003C00320000000010000800002F
S113219010081900101000100800000808001000B2
S11321A00000000000000000000F2222F000444460
S11321B0008E4064200EC044002E6044800E40C453
S11321C00066006600660066006C2046C006408C0F
S11321D0004E4046400E404C00C64026600C804CE9
S9030000FC
