S00E00005465747269732E737265639B
S11300000C943B000C9458000C9458000C94580029
S11300100C9458000C9458000C9458000C945800FC
S11300200C9458000C9458000C9458000C945800EC
S11300300C9458000C9458000C9458000C945800DC
S11300400C9458000C9458000C9458000C945800CC
S11300500C9458000C9458000C9458000C945800BC
S11300600C9458000C9458001F07370728074707BB
S1130070560759075C0711241FBECFEFD8E0DEBF37
S1130080CDBF11E0A0E0B1E0EEE1FDE102C00590DA
S11300900D92A83AB107D9F726E0A8EAB1E001C069
S11300A01D92AE36B207E1F70E945F0B0C948D0EE1
S11300B00C940000089508950895089508952091DA
S11300C0B2013091B3018091B0019091B101820FDE
S11300D0931F08952091B0013091B101243131056D
S11300E041F12091AA013091AB01A9014F5F5F4F0B
S11300F05093AB014093AA01220F331FF901E25040
S1130100FA4FDC018D919C91918380834431510598
S113011021F41092AB011092AA018091B001909148
S1130120B10101969093B1018093B00181E090E018
S1130130089580E090E00895CF93DF93EC010E944E
S11301405F00892BE1F38091B0019091B101892B7B
S113015029F18091A8019091A9019C012F5F3F4F43
S11301603093A9012093A801880F991FFC01E25044
S1130170FA4F80819181998388832431310521F458
S11301801092A9011092A8018091B0019091B1013F
S113019001979093B1018093B00124C08091AC0188
S11301A09091AD019C012F5F3F4F3093AD0120939F
S11301B0AC01880F991FFC01EA52FA4F80819181AA
S11301C0998388832431310521F41092AD01109272
S11301D0AC018091B2019091B30101979093B30166
S11301E08093B201DF91CF9108951092B3011092E0
S11301F0B2011092B1011092B0011092AD011092AF
S1130200AC011092AF011092AE011092A9011092AC
S1130210A8011092AB011092AA0108950E949F0DAB
S11302200895782F842F0895CF92DF92EF92690179
S1130230E42E883008F03FC06032E8F560FF1AC051
S113024090E0FC01EE0FFF1FE80FF91F4FE150E0B3
S1130250461B5109CA01880F991F480F591F440FA3
S1130260551F440F551F440F551FE40FF51FEC5441
S1130270FE4F1CC0E7E0F0E0E81BF109CF01880F56
S1130280991FE80FF91F8FE190E0861B91099C01EB
S1130290220F331F820F931F880F991F880F991FF6
S11302A0880F991FE80FF91FEC54FE4F309719F08F
S11302B0C082D182E282EF90DF90CF90089584EBE8
S11302C091E00E949D0D80E093E00E949C0D0E94AD
S11302D09E0D089586EB94E0E6E2F6E02EE636E025
S11302E0819391930896E217F307D1F70895CF937A
S11302F0DF9300D0CDB7DEB7CE0101960E949C00FB
S113030089818111F9CF0F900F90DF91CF910895DA
S1130310A6E2B6E04EE656E010C0ED91FC911197CE
S11303208260E20FF31F80832F5F3F4F2C30310533
S1130330A1F71296A417B50719F020E030E0EDCF2D
S11303400895DF92EF92FF920F931F93CF93DF9361
S11303500EE216E0D12C2FC0D8018D919C91FC01A6
S1130360EC0FFD1F208121FF1CC0822F82958695F2
S1130370877090E0FC01EE0FFF1F8E0F9F1FFC01A2
S1130380E05BFE4F2081318142816D2D8C2F0E94D4
S11303901401D701ED91FC91EC0FFD1F80818D7F3D
S11303A080832196C830D105B9F6D3940E5F1F4FD0
S11303B0B0E2DB1621F0C0E0D0E07801CDCFDF91D0
S11303C0CF911F910F91FF90EF90DF900895AEE2CF
S11303D0B6E04EE656E010C0ED91FC911197E80F9F
S11303E0F91F208122602083019688309105A1F7AE
S11303F012964A175B0719F080E090E0EDCF0E9457
S1130400A10108958430910544F56430710538F5EF
S1130410483038F5243038F5FB01EE0FFF1FEE0F9E
S1130420FF1FE80FF91FEE0FFF1FEA5FFE4FA22F19
S1130430B0E084E0489FA00DB11D1124AA0FBB1F9A
S1130440A859BE4F208131818D919C912823392355
S113045081E0232B49F480E0089580E0089580E052
S1130460089580E0089580E008952F923F924F927E
S11304705F926F927F928F929F92AF92BF92CF9230
S1130480DF92EF92FF920F931F93CF93DF93282E67
S1130490392E4B01442E522ECB01880F991F9C01FB
S11304A02A5D394F6901A12CB12C30C0252D442D72
S11304B0B701CE010E9402028823C1F00830110561
S11304C070F584E26816710460F5F601408151818B
S11304D0FA01E00FF11F808182958695877031F0D3
S11304E0FA01E00FF11F808180FF1DC021960F5F8C
S11304F01F4FC430D105D1F6FFEFAF1ABF0A22E077
S1130500C20ED11C34E0A316B10479F0022D132DD0
S1130510C0E0D0E075013501680C791CC7CF80E0DC
S113052005C080E003C080E001C081E0DF91CF918D
S11305301F910F91FF90EF90DF90CF90BF90AF90FD
S11305409F908F907F906F905F904F903F902F90EF
S11305500895AF92BF92CF92DF92EF92FF920F93E2
S11305601F93CF93DF936C01A42EB22E660F771FD7
S1130570CB018A5D994F7C0100E010E020C02B2D57
S11305804A2DB801CE010E940202882361F0D701EE
S1130590ED91FC91C6018C0F9D1FE80FF91F80811E
S11305A08C71826080832196C430D10541F70F5F3E
S11305B01F4FB2E0EB0EF11C0430110519F0C0E03E
S11305C0D0E0DDCFDF91CF911F910F91FF90EF909D
S11305D0DF90CF90BF90AF9008959F92AF92BF925B
S11305E0CF92DF92EF92FF920F931F93CF93DF93FB
S11305F06C01B42EA22E660F771FCB018A5D994F32
S11306007C0100E010E0942E990C990C990C990C43
S1130610990C21C02A2D4B2DB801CE010E94020253
S1130620882369F0D701ED91FC91C6018C0F9D1FC1
S1130630E80FF91F80818C7183608929808321965A
S1130640C430D10539F70F5F1F4FB2E0EB0EF11C38
S11306500430110519F0C0E0D0E0DCCFDF91CF9178
S11306601F910F91FF90EF90DF90CF90BF90AF90CC
S11306709F900895CF93C091B504C0FF07C070E068
S1130680082E000C990B0E94A90206C070E0082EE7
S1130690000C990B0E94ED02CF5FC093B504CF917B
S11306A008959F92AF92BF92CF92DF92EF92FF9202
S11306B00F931F93CF93DF936C01B42EA22E660F7A
S11306C0771FCB018A5D994F7C0100E010E0942EE6
S11306D0990C990C990C990C990C21C02A2D4B2D2D
S11306E0B801CE010E940202882369F0D701ED917E
S11306F0FC91C6018C0F9D1FE80FF91F80818C713E
S11307008260892980832196C430D10539F70F5F2F
S11307101F4FB2E0EB0EF11C0430110519F0C0E0DC
S1130720D0E0DCCFDF91CF911F910F91FF90EF903C
S1130730DF90CF90BF90AF909F900895DF92EF929B
S1130740FF920F931F93CF93DF93F62EE42ED22EB6
S1130750062F660F110B0F5F1F4FC82F880FDD0B7D
S1130760B801CE010E943502882379F06F2DFF0C69
S1130770770B2D2D4E2DCE010E94A9022D2D4E2D2D
S1130780B801CE010E94ED0281E0DF91CF911F916B
S11307900F91FF90EF90DF900895CF92DF92EF9248
S11307A0FF920F931F93CF93DF93F42EE22EC62F65
S11307B0660FDD0B082F880F110B680181E0C81A42
S11307C0D108BE01C6010E943502882369F02E2D8E
S11307D04F2DBE01C8010E94A9022E2D4F2DBE012E
S11307E0C6010E94ED0281E0DF91CF911F910F912C
S11307F0FF90EF90DF90CF900895CF92DF92EF9229
S1130800FF920F931F93CF93DF93F42EE22EC62F04
S1130810660FDD0B082F880F110B68018FEFC81AC4
S1130820D80ABE01C6010E943502882369F02E2D24
S11308304F2DBE01C8010E94A9022E2D4F2DBE01CD
S1130840C6010E94ED0281E0DF91CF911F910F91CB
S1130850FF90EF90DF90CF9008953F924F925F9278
S11308606F927F928F929F92AF92BF92CF92DF92BC
S1130870EF92FF920F931F93CF93DF936C014B0181
S11308805A018901F901308081E0830D8370782E4B
S1130890FA014080FB01C0810C2E000CDD0BF60137
S11308A06080E62C062C000CFF08282F442DBE0186
S11308B0C7010E943502582E882301F1232D442DAF
S11308C0BE01C7010E94A902F80120812F5F237095
S11308D0F4016081062E000C770BF6018081F5018E
S11308E04081082E000C990B0E94ED02F8018081D2
S11308F08F5F8370808355245394C6C0662074F53B
S1130900272D442DBE01C70101960E94350288237C
S113091029F1232D442DBE01C7010E94A902F8012B
S113092020812F5F2370F4016081062E000C770B69
S1130930F6018081082E000C990BF5014081019687
S11309400E94ED02F60180818F5F8083F80180812F
S11309508F5F837080835524539496C0F4E0F6151A
S113096074F5272D442DBE01C70101970E9435025D
S1130970882329F1232D442DBE01C7010E94A90219
S1130980F80120812F5F2370F4016081062E000C92
S1130990770BF6018081082E000C990BF50140813C
S11309A001970E94ED02F601808181508083F80155
S11309B080818F5F837080835524539465C0F1E0F8
S11309C04F1262C08FEF681674F5272D41E0BE0107
S11309D0C70102960E943502882329F1232D41E0A4
S11309E0BE01C7010E94A902F80120812F5F237074
S11309F0F4016081062E000C770BF6018081082E2D
S1130A00000C990BF501408102960E94ED02F6015B
S1130A1080818E5F8083F80180818F5F8370808303
S1130A205524539431C0F5E0F61574F5272D41E0B3
S1130A30BE01C70102970E943502582E882321F176
S1130A40232D41E0BE01C7010E94A902F8012081C3
S1130A502F5F2370F4016081062E000C770BF601E2
S1130A608081082E000C990BF501408102970E94A9
S1130A70ED02F601808182508083F80180818F5FCE
S1130A808370808355245394852DDF91CF911F91DA
S1130A900F91FF90EF90DF90CF90BF90AF909F9019
S1130AA08F907F906F905F904F903F9008953F920A
S1130AB04F925F926F927F928F929F92AF92BF926A
S1130AC0CF92DF92EF92FF920F931F93CF93DF9316
S1130AD06C014B015A018901F901308083E0830DD7
S1130AE08370782EFA014080FB01C0810C2E000C2B
S1130AF0DD0BF6016080E62C062C000CFF08282F85
S1130B00442DBE01C7010E943502582E882301F1ED
S1130B10232D442DBE01C7010E94A902F8012081A2
S1130B202D5F2370F4016081062E000C770BF60113
S1130B308081F5014081082E000C990B0E94ED0282
S1130B40F80180818D5F8370808355245394C6C0DF
S1130B50662074F5272D442DBE01C70101960E941D
S1130B603502882329F1232D442DBE01C7010E949B
S1130B70A902F80120812D5F2370F4016081062E03
S1130B80000C770BF6018081082E000C990BF501FF
S1130B90408101960E94ED02F60180818F5F80837F
S1130BA0F80180818D5F837080835524539496C0AF
S1130BB0F4E0F61574F5272D442DBE01C701019705
S1130BC00E943502882329F1232D442DBE01C7013B
S1130BD00E94A902F80120812D5F2370F401608135
S1130BE0062E000C770BF6018081082E000C990B61
S1130BF0F501408101970E94ED02F6018081815048
S1130C008083F80180818D5F8370808355245394A1
S1130C1065C0F1E04F1262C08FEF681674F5272D9E
S1130C2041E0BE01C70102960E943502882329F1E2
S1130C30232D41E0BE01C7010E94A902F8012081D1
S1130C402D5F2370F4016081062E000C770BF601F2
S1130C508081082E000C990BF501408102960E94B8
S1130C60ED02F60180818E5F8083F80180818D5FC3
S1130C70837080835524539431C0F5E0F61574F5E0
S1130C80272D41E0BE01C70102970E943502582E6C
S1130C90882321F1232D41E0BE01C7010E94A9024E
S1130CA0F80120812D5F2370F4016081062E000C71
S1130CB0770BF6018081082E000C990BF501408119
S1130CC002970E94ED02F601808182508083F80130
S1130CD080818D5F8370808355245394852DDF91AB
S1130CE0CF911F910F91FF90EF90DF90CF90BF9025
S1130CF0AF909F908F907F906F905F904F903F90B8
S1130D000895482F8432C4F5282F082E000C330B85
S1130D10682F70E06C5F7F4F26173707E4F080E0A0
S1130D200895FD01E20FF31F9081929596959770B7
S1130D3031F02F5F3F4F2830310599F71FC04F5FC7
S1130D40550F4432E9F0242F042E000C330B2617E0
S1130D5037071CF0089551E080E0220F331FF9019A
S1130D60EA5DF94FA081B1819C9192959695977017
S1130D7031F321E030E0D5CF80E00895852BDFCF3B
S1130D8008958823B1F0E82FF0E0DF01AA0FBB1F1C
S1130D90AA5DB94F2D913C911197EE0FFF1FEC5DA9
S1130DA0F94F408151814D935C933183208381506D
S1130DB051F70895CF93DF93C6E2D6E04EE256E0B2
S1130DC011C081E090E0FD01E80FF91F2081229518
S1130DD02695277081F4019688309105A1F7C417F0
S1130DE0D50759F0A991B9918C9182958695877010
S1130DF041F381E003C081E001C080E0DF91CF9145
S1130E0008958F929F92AF92BF92CF92DF92EF920A
S1130E10FF920F931F93CF93DF93D8011196EC9118
S1130E208E2E912CB7E08B16910408F04BC0D6019E
S1130E308B01EC01F401EC5CFF4F0C94D60D81E0C6
S1130E40F701808362E370E080E00E945C003AC0B6
S1130E50D9012C91FA014081DB016C9188810E94B7
S1130E60CD03882379F18881815088832BC0F901CF
S1130E702081DA014C91FB01608188810E949E03EC
S1130E80882301F1D8018C918F5F8C931BC0F901E9
S1130E902081DA014C91FB01608188810E94FD036D
S1130EA0882381F088818F5F88830CC00E94570556
S1130EB009C00E942D0406C0FB018081833014F018
S1130EC084E08C93DF91CF911F910F91FF90EF906D
S1130ED0DF90CF90BF90AF909F908F90089520E0C7
S1130EE030E0A82FB0E0AA0FBB1FAA5DB94FED9167
S1130EF0FC911197E20FF31F90819C719260908393
S1130F002F5F3F4F2830310591F70895E82FF0E027
S1130F10DF01AA0FBB1FAA5DB94F8D919C91119758
S1130F20EE0FFF1FEC5DF94F208131812D933C932F
S1130F3091838083089520E030E0A82FB0E0AA0FC9
S1130F40BB1FAA5DB94F6295660F607EED91FC915F
S1130F501197E20FF31F90819C719260962B9083FE
S1130F602F5F3F4F2830310589F7089520E030E0A6
S1130F70A82FB0E0AA0FBB1FAA5DB94FED91FC9159
S1130F801197E20FF31F9081926090832F5F3F4F80
S1130F902830310599F70895CF93DF93EC018091C0
S1130FA00501882369F083E288830E949B076BE430
S1130FB070E080E00E945C001092050180E015C0A2
S1130FC0888118167CF481500E946F0788810E94E2
S1130FD08607888181500E94B60788818150888362
S1130FE080E003C081E080930501DF91CF910895F3
S1130FF0EF92FF920F931F93CF93DF93909104018D
S11310002FEF290F20930401992381F1880F990B65
S1131010AC014A5D594FC6E2D6E00EE216E081E02B
S1131020962F9823D1F0DA012D913C911197E88005
S1131030F9801196FC92EE923983288320E030E007
S1131040ED91FC911197E20FF31F908192609083D0
S11310502F5F3F4F2830310599F7880F4E5F5F4F60
S11310602296C017D107E1F680E05CC0A6E2B6E0A4
S1131070C82FCC0FDD0BCA5DD94F0EE216E071E02C
S1131080962F9723C1F020E030E0ED91FC91119769
S1131090E20FF31F90819C7192609083E881F98143
S11310A0E20FF31F90819C71926090832F5F3F4FFA
S11310B02830310551F7770F129622960A171B072D
S11310C0F9F67A01C62FD82F04E0080F11E08C2F0F
S11310D0812341F08D2F0E94C1068091B4048F5F5B
S11310E08093B404110FDF5FD013F1CFE091B40407
S11310F0F0E0EE0FFF1FEA5DFE4F20813181F70122
S113110080819181A281B381820F931FA11DB11DA2
S113111080839183A283B3831092B40483E0809389
S1131120040181E0DF91CF911F910F91FF90EF9027
S11311300895062E000C770BFB01EE0FFF1FEA5DEE
S1131140F94FA081B181042E000C550BA40FB51FDB
S11311509C919C718295880F807E9260982B9C93C1
S1131160A081B1819A012F5F3F4FA20FB31F9C91C1
S11311709C719260982B9C93A081B1814E5F5F4FCC
S1131180A40FB51F9C919C719260982B9C93FB01BA
S1131190EE0FFF1FE85DF94F0190F081E02DE20FA3
S11311A0F31F90819C719260982B9083FB01EE0F4A
S11311B0FF1FE65DF94F0190F081E02DE20FF31F70
S11311C090819C719260982B9083FB01EE0FFF1F1E
S11311D0E45DF94F0190F081E02DE20FF31F90815F
S11311E09C719260982B9083660F771FFB01E25DE0
S11311F0F94F0190F081E02DE20FF31F90819C7173
S11312009260892B80830895CF93DF93062E000C80
S1131210770BFB01EE0FFF1FEA5DF94FA081B1814F
S1131220042E000C550BA40FB51F9C919C71829544
S1131230880F807E9260982B9C93A081B181EA01F3
S11312402196AC0FBD1F9C919C719260982B9C932E
S11312500190F081E02D9A012E5F3F4FE20FF31FC2
S113126090819C719260982B9083FB01EE0FFF1F7D
S1131270E85DF94F0190F081E02DE40FF51F9081B6
S11312809C719260982B9083FB01EE0FFF1FE65D2B
S1131290F94FA081B181A40FB51F9C919C719260FC
S11312A0982B9C93A081B181AC0FBD1F9C919C7124
S11312B09260982B9C930190F081E02DE20FF31F34
S11312C090819C719260982B9083FB01EE0FFF1F1D
S11312D0E45DF94F0190F081E02DE40FF51F90815A
S11312E09C719260982B9083660F771FDB01A25D3F
S11312F0B94FED91FC911197E40FF51F90819C710A
S11313009260982B90834D915C911197C40FD51FD7
S113131098819C719260982B9883ED91FC91E20FD7
S1131320F31F90819C719260892B8083DF91CF9110
S11313300895EF92FF920F931F93CF93DF93062E9E
S1131340000C770BDB01AA0FBB1FAA5DB94FED910F
S1131350FC911197042E000C550BE40FF51F90819E
S11313609C718295880F807E9260982B9083CD919A
S1131370DC911197FA013196CE0FDF1F98819C7191
S11313809260982B98830D90BC91A02DEA0122962F
S1131390AC0FBD1F9C919C719260982B9C938B0108
S11313A0000F111F085D194FD8012D913C91D901EF
S11313B0AC0FBD1F9C919C719260982B9C939B01D8
S11313C0220F331F265D394FD901ED90FC90D701D0
S11313D0AC0FBD1F9C919C719260982B9C93D9017A
S11313E0ED90FC90D701AE0FBF1F9C919C71926051
S11313F0982B9C93DB01AA0FBB1FA45DB94FED9002
S1131400FC901197EE0DFF1D90819C719260982BBA
S11314109083660F771FFB01E25DF94F6081718154
S1131420C60FD71F98819C719260982B9883E8010E
S113143068817981EB01C40FD51F98819C719260FA
S1131440982B9883E90128813981E901C40FD51FBC
S113145098819C719260982B98830D90BC91A02DDB
S1131460A40FB51F9C919C719260982B9C93019042
S1131470F081E02DE40FF51F90819C719260892B1F
S11314808083DF91CF911F910F91FF90EF9008958A
S1131490CF93DF93062E000C770BFB01EE0FFF1F9B
S11314A0EA5DF94FA081B181042E000C550BA40F05
S11314B0B51F9C919C718295880F807E9260982BB9
S11314C09C93C081D181DA011196CA0FDB1F9881E8
S11314D09C719260982B98830190F081E02D9A0181
S11314E02E5F3F4FE20FF31F90819C719260982B07
S11314F09083FB01EE0FFF1FE85DF94F0190F0812F
S1131500E02DEA0FFB1F90819C719260982B9083D1
S1131510FB01EE0FFF1FE65DF94F0190F081E02D16
S1131520EA0FFB1F90819C719260982B9083FB01C2
S1131530EE0FFF1FE45DF94F0190F081E02DEA0FFB
S1131540FB1F90819C719260982B9083660F771F8C
S1131550FB01E25DF94FC081D181C40FD51F988191
S11315609C719260982B988340815181A40FB51F80
S11315709C919C719260982B9C930190F081E02D3A
S1131580E20FF31F90819C719260892B8083DF911D
S1131590CF910895CF93DF93062E000C770BFB01B8
S11315A0EE0FFF1FEA5DF94FA081B181042E000CFC
S11315B0550BA40FB51F9C919C718295880F807E5A
S11315C09260982B9C93A081B181EA012196AC0F83
S11315D0BD1F9C919C719260982B9C930190F0810B
S11315E0E02D9A012E5F3F4FE20FF31F90819C7113
S11315F09260982B9083FB01EE0FFF1FE85DF94F7B
S11316000190F081E02DE40FF51F90819C719260B0
S1131610982B9083FB01EE0FFF1FE65DF94FA0812D
S1131620B181A40FB51F9C919C719260982B9C93DF
S1131630A081B181AC0FBD1F9C919C719260982BCD
S11316409C930190F081E02DE20FF31F90819C7137
S11316509260982B9083FB01EE0FFF1FE45DF94F1E
S11316600190F081E02DE20FF31F90819C71926054
S1131670982B9083660F771FDB01A25DB94FED9124
S1131680FC911197E40FF51F90819C719260982B47
S113169090834D915C911197C40FD51F98819C71D3
S11316A09260982B9883ED91FC91E20FF31F908147
S11316B09C719260892B8083DF91CF910895CF93A1
S11316C0DF93CDB7DEB72C970FB6F894DEBF0FBE0D
S11316D0CDBF19821A821B821C821D821A860E9427
S11316E06A010E945E00412CE89440F8689441F835
S11316F0242D2F71422E0E940E010E945A0062E393
S113170070E080E00E945C00842D0E9488010E94A9
S1131710A1014FEF6FEF8FEF0E9411019B01482F42
S113172060E080E00E9414014FEF6FEF8FEF0E94A2
S113173011019B01482F60E087E00E9414014FEFE4
S11317406FEF8FEF0E9411019B01482F6FE180E042
S11317500E9414014FEF6FEF8FEF0E9411019B0164
S1131760482F6FE187E00E9414010E945F016EE43C
S113177071E68CEB90E00E945D000E947701842D5D
S11317800E9488010E94A1010E945F0184E690E00A
S11317900E945B000E94F5000F2EF2E38F2E912C25
S11317A0F02D0F2EF7E06F2E712CF02DBB24B39487
S11317B06894AA24A1F80F2EF6E05F2EF02D0E9463
S11317C05E006A817B818C819D810E945D00CE01D7
S11317D00B960E949C008A85833009F474C028F417
S11317E0882361F08130B1F1EACF853009F4EEC08D
S11317F008F44BC1863009F482C1E1CF1A821B82FE
S11318001C821D8260E070E0CB010E945D004B2DC4
S113181065E08B2D0E94990844E06AE08A2D0E94BD
S113182004094B2D6FE083E00E94990844E064E1D1
S113183084E00E9499094B2D69E185E00E94480AE1
S113184044E06EE1852D0E94CA0A8B8581116EC128
S1131850BA866CC10E94F500842D0E9488010E9402
S11318603C0E837090784C01992354F481E0881ADB
S113187091089CEF892A99249A942FEF821A920A4C
S113188089860E943C0EB3010E94A00D41E0480FDE
S11318904887BF82AE82282D61E070E082E090E04C
S11318A00E94ED020E94A1010E945F0183E08A87E9
S11318B068EC70E080E00E945C000F2EF8EC8F2E44
S11318C0912CF02D7CCF8B858130E1F018F08330A2
S11318D019F175CF8981811172CFCE010A966C01FD
S11318E009977C018E01055F1F4F9E01275F3F4FC3
S11318F0AE01485F5F4FBE01695F7F4F05960E944E
S1131900010714C18C85843008F059CF1B86CE01A1
S11319100B960E946A0053CF298548856F818E817A
S11319200E949E03882321F08F818F5F8F83FEC0E6
S11319306F81062E000C770B8E8129854885082E31
S1131940000C990B0E9451038981882341F08B2557
S11319508983B40180E00E945C000E94F5001F812D
S1131960812F0E948106382E882341F068EC70E0B4
S113197080E00E945C0085E08A8721CF153034F432
S11319800E94DA06882311F05A8619CF0E943C0E71
S11319908C0103701078112334F4015011090C6F79
S11319A01F6F0F5F1F4F09870E943C0EB3010E94F7
S11319B0A00D41E0480F4887BF82AE82202F61E02E
S11319C070E082E090E00E94ED02B0C08B8583302D
S11319D009F0F5CEAE014E5F5F4F632D8F810E94FB
S11319E0F807882309F4A2C00E94DA06882311F0BC
S11319F05A869CC00E943C0E8C01037010781123FF
S1131A0034F4015011090C6F1F6F0F5F1F4F0987CA
S1131A100E943C0EB3010E94A00D41E0480F48878C
S1131A20BF82AE82202F61E070E082E090E00E94ED
S1131A30ED0283E08A876A817B818C819D81603895
S1131A402CE072078105910570F428EC30E040E049
S1131A5050E00E94B40D220F331FF901E05DFE4FE8
S1131A608080918005C00F2EF2E38F2E912CF02DF3
S1131A70B40180E00E945C006A817B818C819D813D
S1131A800E945D000E94E70151C08B85833061F4A0
S1131A9060E971E080E00E945C00298548856F81DF
S1131AA08E810E943A0342C0811189CE8C85863092
S1131AB0A9F4B40180E00E945C006F81062E000C42
S1131AC0770B8E8129854885082E000C990B0E947E
S1131AD0ED020E94E70183E08A8771CE873009F026
S1131AE06ECE6F81062E000C770B8E81298548857A
S1131AF0082E000C990B0E94ED025A8660CE8B854D
S1131B00833009F05CCE6885CE0107960E94CC072D
S1131B10882361F062E370E080E00E945C001A8632
S1131B2005C00E94A1010E945F0149CE0E945F008E
S1131B30892B09F044CEF5CF0895089508950895AA
S1131B4097FB072E16F4009407D077FD09D00E9466
S1131B50DC0D07FC05D03EF4909581959F4F0895C8
S1131B60709561957F4F0895A1E21A2EAA1BBB1BA5
S1131B70FD010DC0AA1FBB1FEE1FFF1FA217B30755
S1131B80E407F50720F0A21BB30BE40BF50B661F6B
S1131B90771F881F991F1A9469F76095709580952F
S1131BA090959B01AC01BD01CF010895EE0FFF1F7D
S1131BB00590F491E02D0994AA1BBB1B51E107C0C9
S1131BC0AA1FBB1FA617B70710F0A61BB70B881FC9
S1131BD0991F5A95A9F780959095BC01CD01089558
S1131BE08F929F92AF92BF92CF92DF92EF92FF9229
S1131BF0CF93DF93EC01688179818A819B816115A0
S1131C0071058105910521F464E279ED8BE597E096
S1131C102DE133EF41E050E00E944C0E49015A019E
S1131C209B01AC01A7EAB1E40E946B0E6B017C013D
S1131C30ACEEB4EFA50194010E94790EDC01CB0156
S1131C408C0D9D1DAE1DBF1DB7FF03C00197A109DB
S1131C50B04888839983AA83BB839F77DF91CF9110
S1131C60FF90EF90DF90CF90BF90AF909F908F90B8
S1131C7008950E94F00D089580E091E00E94F00D17
S1131C800895A0E0B0E08093000190930101A09337
S1131C900201B09303010895052E97FB1EF40094EE
S1131CA00E94630E57FD07D00E94B40D07FC03D0B9
S1131CB04EF40C94630E50954095309521953F4F0A
S1131CC04F4F5F4F089590958095709561957F4F24
S1131CD08F4F9F4F08950E947E0EA59F900DB49F35
S1131CE0900DA49F800D911D11240895B7FF0C94AD
S1131CF06B0E0E946B0E821B930B0895A29FB00182
S1131D00B39FC001A39F700D811D1124911DB29F2B
S1111D10700D811D1124911D0895F894FFCFCC
S1131D1E01000000030100800040002000100008B4
S1131D2E00040002000180004000200010000800A2
S1131D3E040002000100000028006400C8009001A5
S1131D4EC800BE00B400AA00A00096008C00820059
S1131D5E78006E0064005A00500046003C003200C9
S1131D6E00000010000800001008190010100010E8
S1131D7E0800000808001000000000000000000029
S1131D8E000F2222F0004444008E4064200EC04412
S1131D9E002E6044800E40C4006600660066006635
S1131DAE006C2046C006408C004E4046400E404C0F
S10B1DBE00C64026600C804CB5
S9030000FC
